{
  "_format": "hh-sol-artifact-1",
  "contractName": "HomerGem",
  "sourceName": "contracts/HomerGem.sol",
  "abi": [
    {
      "inputs": [],
      "stateMutability": "nonpayable",
      "type": "constructor"
    },
    {
      "inputs": [],
      "name": "waitForEndstakingTime",
      "type": "error"
    },
    {
      "inputs": [],
      "name": "youDontHaveBalance",
      "type": "error"
    },
    {
      "anonymous": false,
      "inputs": [
        {
          "indexed": true,
          "internalType": "address",
          "name": "owner",
          "type": "address"
        },
        {
          "indexed": true,
          "internalType": "address",
          "name": "spender",
          "type": "address"
        },
        {
          "indexed": false,
          "internalType": "uint256",
          "name": "value",
          "type": "uint256"
        }
      ],
      "name": "Approval",
      "type": "event"
    },
    {
      "anonymous": false,
      "inputs": [
        {
          "indexed": true,
          "internalType": "address",
          "name": "from",
          "type": "address"
        },
        {
          "indexed": true,
          "internalType": "address",
          "name": "to",
          "type": "address"
        },
        {
          "indexed": false,
          "internalType": "uint256",
          "name": "value",
          "type": "uint256"
        }
      ],
      "name": "Transfer",
      "type": "event"
    },
    {
      "stateMutability": "payable",
      "type": "fallback"
    },
    {
      "inputs": [],
      "name": "Owner",
      "outputs": [
        {
          "internalType": "address",
          "name": "",
          "type": "address"
        }
      ],
      "stateMutability": "view",
      "type": "function"
    },
    {
      "inputs": [
        {
          "internalType": "address",
          "name": "owner",
          "type": "address"
        },
        {
          "internalType": "address",
          "name": "spender",
          "type": "address"
        }
      ],
      "name": "allowance",
      "outputs": [
        {
          "internalType": "uint256",
          "name": "",
          "type": "uint256"
        }
      ],
      "stateMutability": "view",
      "type": "function"
    },
    {
      "inputs": [
        {
          "internalType": "address",
          "name": "spender",
          "type": "address"
        },
        {
          "internalType": "uint256",
          "name": "amount",
          "type": "uint256"
        }
      ],
      "name": "approve",
      "outputs": [
        {
          "internalType": "bool",
          "name": "",
          "type": "bool"
        }
      ],
      "stateMutability": "nonpayable",
      "type": "function"
    },
    {
      "inputs": [
        {
          "internalType": "address",
          "name": "account",
          "type": "address"
        }
      ],
      "name": "balanceOf",
      "outputs": [
        {
          "internalType": "uint256",
          "name": "",
          "type": "uint256"
        }
      ],
      "stateMutability": "view",
      "type": "function"
    },
    {
      "inputs": [],
      "name": "burn",
      "outputs": [
        {
          "internalType": "uint256",
          "name": "",
          "type": "uint256"
        }
      ],
      "stateMutability": "view",
      "type": "function"
    },
    {
      "inputs": [
        {
          "internalType": "address",
          "name": "_addr",
          "type": "address"
        }
      ],
      "name": "changeLiquidityWallet",
      "outputs": [],
      "stateMutability": "nonpayable",
      "type": "function"
    },
    {
      "inputs": [
        {
          "internalType": "address",
          "name": "_addr",
          "type": "address"
        }
      ],
      "name": "changeMarketingWallet",
      "outputs": [],
      "stateMutability": "nonpayable",
      "type": "function"
    },
    {
      "inputs": [
        {
          "internalType": "address",
          "name": "_addr",
          "type": "address"
        }
      ],
      "name": "changeOwnership",
      "outputs": [],
      "stateMutability": "nonpayable",
      "type": "function"
    },
    {
      "inputs": [
        {
          "internalType": "uint256",
          "name": "_burnTax",
          "type": "uint256"
        }
      ],
      "name": "customizeBurnTax",
      "outputs": [],
      "stateMutability": "nonpayable",
      "type": "function"
    },
    {
      "inputs": [
        {
          "internalType": "uint256",
          "name": "_marketingTax",
          "type": "uint256"
        }
      ],
      "name": "customizeMarketingTax",
      "outputs": [],
      "stateMutability": "nonpayable",
      "type": "function"
    },
    {
      "inputs": [
        {
          "internalType": "uint256",
          "name": "_liquidityTax",
          "type": "uint256"
        }
      ],
      "name": "customizeliquidityTax",
      "outputs": [],
      "stateMutability": "nonpayable",
      "type": "function"
    },
    {
      "inputs": [],
      "name": "decimals",
      "outputs": [
        {
          "internalType": "uint8",
          "name": "",
          "type": "uint8"
        }
      ],
      "stateMutability": "view",
      "type": "function"
    },
    {
      "inputs": [
        {
          "internalType": "address",
          "name": "spender",
          "type": "address"
        },
        {
          "internalType": "uint256",
          "name": "subtractedValue",
          "type": "uint256"
        }
      ],
      "name": "decreaseAllowance",
      "outputs": [
        {
          "internalType": "bool",
          "name": "",
          "type": "bool"
        }
      ],
      "stateMutability": "nonpayable",
      "type": "function"
    },
    {
      "inputs": [],
      "name": "enableStaking",
      "outputs": [],
      "stateMutability": "nonpayable",
      "type": "function"
    },
    {
      "inputs": [],
      "name": "getStakersAddresses",
      "outputs": [
        {
          "internalType": "address[]",
          "name": "",
          "type": "address[]"
        }
      ],
      "stateMutability": "view",
      "type": "function"
    },
    {
      "inputs": [
        {
          "internalType": "address",
          "name": "spender",
          "type": "address"
        },
        {
          "internalType": "uint256",
          "name": "addedValue",
          "type": "uint256"
        }
      ],
      "name": "increaseAllowance",
      "outputs": [
        {
          "internalType": "bool",
          "name": "",
          "type": "bool"
        }
      ],
      "stateMutability": "nonpayable",
      "type": "function"
    },
    {
      "inputs": [
        {
          "internalType": "address",
          "name": "",
          "type": "address"
        }
      ],
      "name": "isStaking",
      "outputs": [
        {
          "internalType": "bool",
          "name": "",
          "type": "bool"
        }
      ],
      "stateMutability": "view",
      "type": "function"
    },
    {
      "inputs": [],
      "name": "liquidity",
      "outputs": [
        {
          "internalType": "uint256",
          "name": "",
          "type": "uint256"
        }
      ],
      "stateMutability": "view",
      "type": "function"
    },
    {
      "inputs": [],
      "name": "liquidityWallet",
      "outputs": [
        {
          "internalType": "address payable",
          "name": "",
          "type": "address"
        }
      ],
      "stateMutability": "view",
      "type": "function"
    },
    {
      "inputs": [],
      "name": "marketing",
      "outputs": [
        {
          "internalType": "uint256",
          "name": "",
          "type": "uint256"
        }
      ],
      "stateMutability": "view",
      "type": "function"
    },
    {
      "inputs": [],
      "name": "marketingWallet",
      "outputs": [
        {
          "internalType": "address payable",
          "name": "",
          "type": "address"
        }
      ],
      "stateMutability": "view",
      "type": "function"
    },
    {
      "inputs": [],
      "name": "name",
      "outputs": [
        {
          "internalType": "string",
          "name": "",
          "type": "string"
        }
      ],
      "stateMutability": "view",
      "type": "function"
    },
    {
      "inputs": [
        {
          "internalType": "uint256",
          "name": "_amount",
          "type": "uint256"
        },
        {
          "internalType": "uint256",
          "name": "_reward",
          "type": "uint256"
        }
      ],
      "name": "rewardPerDay",
      "outputs": [
        {
          "internalType": "uint256",
          "name": "_payOutAmount",
          "type": "uint256"
        }
      ],
      "stateMutability": "pure",
      "type": "function"
    },
    {
      "inputs": [
        {
          "internalType": "uint256",
          "name": "_amount",
          "type": "uint256"
        },
        {
          "internalType": "uint256",
          "name": "_duration",
          "type": "uint256"
        }
      ],
      "name": "stakeToken",
      "outputs": [],
      "stateMutability": "nonpayable",
      "type": "function"
    },
    {
      "inputs": [
        {
          "internalType": "uint256",
          "name": "",
          "type": "uint256"
        }
      ],
      "name": "staked",
      "outputs": [
        {
          "internalType": "uint256",
          "name": "stakedAmount",
          "type": "uint256"
        },
        {
          "internalType": "uint256",
          "name": "stakingStart",
          "type": "uint256"
        },
        {
          "internalType": "uint256",
          "name": "stakingEnd",
          "type": "uint256"
        },
        {
          "internalType": "address",
          "name": "stakerAddress",
          "type": "address"
        },
        {
          "internalType": "uint256",
          "name": "rewardPercentage",
          "type": "uint256"
        }
      ],
      "stateMutability": "view",
      "type": "function"
    },
    {
      "inputs": [
        {
          "internalType": "uint256",
          "name": "",
          "type": "uint256"
        }
      ],
      "name": "stakerAddress",
      "outputs": [
        {
          "internalType": "address",
          "name": "",
          "type": "address"
        }
      ],
      "stateMutability": "view",
      "type": "function"
    },
    {
      "inputs": [],
      "name": "staking",
      "outputs": [
        {
          "internalType": "bool",
          "name": "",
          "type": "bool"
        }
      ],
      "stateMutability": "view",
      "type": "function"
    },
    {
      "inputs": [],
      "name": "symbol",
      "outputs": [
        {
          "internalType": "string",
          "name": "",
          "type": "string"
        }
      ],
      "stateMutability": "view",
      "type": "function"
    },
    {
      "inputs": [],
      "name": "totalSupply",
      "outputs": [
        {
          "internalType": "uint256",
          "name": "",
          "type": "uint256"
        }
      ],
      "stateMutability": "view",
      "type": "function"
    },
    {
      "inputs": [
        {
          "internalType": "address",
          "name": "to",
          "type": "address"
        },
        {
          "internalType": "uint256",
          "name": "amount",
          "type": "uint256"
        }
      ],
      "name": "transfer",
      "outputs": [
        {
          "internalType": "bool",
          "name": "",
          "type": "bool"
        }
      ],
      "stateMutability": "nonpayable",
      "type": "function"
    },
    {
      "inputs": [
        {
          "internalType": "address",
          "name": "from",
          "type": "address"
        },
        {
          "internalType": "address",
          "name": "to",
          "type": "address"
        },
        {
          "internalType": "uint256",
          "name": "amount",
          "type": "uint256"
        }
      ],
      "name": "transferFrom",
      "outputs": [
        {
          "internalType": "bool",
          "name": "",
          "type": "bool"
        }
      ],
      "stateMutability": "nonpayable",
      "type": "function"
    },
    {
      "inputs": [
        {
          "internalType": "uint256",
          "name": "_stakingId",
          "type": "uint256"
        }
      ],
      "name": "unstakeAndClaimRewards",
      "outputs": [],
      "stateMutability": "nonpayable",
      "type": "function"
    },
    {
      "inputs": [
        {
          "internalType": "address",
          "name": "_token",
          "type": "address"
        },
        {
          "internalType": "address",
          "name": "_walletaddr",
          "type": "address"
        }
      ],
      "name": "withdrawToken",
      "outputs": [],
      "stateMutability": "nonpayable",
      "type": "function"
    },
    {
      "stateMutability": "payable",
      "type": "receive"
    }
  ],
  "bytecode": "0x60806040523480156200001157600080fd5b506040518060400160405280600881526020017f486f6d657247656d0000000000000000000000000000000000000000000000008152506040518060400160405280600281526020017f484700000000000000000000000000000000000000000000000000000000000081525081600390816200008f919062000668565b508060049081620000a1919062000668565b505050600073de2c85a4dde9085377c8c468e17da90dd6b794c8905080600760006101000a81548173ffffffffffffffffffffffffffffffffffffffff021916908373ffffffffffffffffffffffffffffffffffffffff16021790555062000162600760009054906101000a900473ffffffffffffffffffffffffffffffffffffffff16620001356200026e60201b60201c565b600a620001439190620008df565b6502ba7def300062000156919062000930565b6200027760201b60201c565b6064600a8190555061012c600b819055506101f4600c819055507337237336820ae58b5fa648b8f14994be3259c6ea600560006101000a81548173ffffffffffffffffffffffffffffffffffffffff021916908373ffffffffffffffffffffffffffffffffffffffff16021790555073de2c85a4dde9085377c8c468e17da90dd6b794c8600660006101000a81548173ffffffffffffffffffffffffffffffffffffffff021916908373ffffffffffffffffffffffffffffffffffffffff16021790555030600860006101000a81548173ffffffffffffffffffffffffffffffffffffffff021916908373ffffffffffffffffffffffffffffffffffffffff1602179055505062000a67565b60006012905090565b600073ffffffffffffffffffffffffffffffffffffffff168273ffffffffffffffffffffffffffffffffffffffff1603620002e9576040517f08c379a0000000000000000000000000000000000000000000000000000000008152600401620002e090620009dc565b60405180910390fd5b620002fd60008383620003e460201b60201c565b8060026000828254620003119190620009fe565b92505081905550806000808473ffffffffffffffffffffffffffffffffffffffff1673ffffffffffffffffffffffffffffffffffffffff168152602001908152602001600020600082825401925050819055508173ffffffffffffffffffffffffffffffffffffffff16600073ffffffffffffffffffffffffffffffffffffffff167fddf252ad1be2c89b69c2b068fc378daa952ba7f163c4a11628f55a4df523b3ef83604051620003c4919062000a4a565b60405180910390a3620003e060008383620003e960201b60201c565b5050565b505050565b505050565b600081519050919050565b7f4e487b7100000000000000000000000000000000000000000000000000000000600052604160045260246000fd5b7f4e487b7100000000000000000000000000000000000000000000000000000000600052602260045260246000fd5b600060028204905060018216806200047057607f821691505b60208210810362000486576200048562000428565b5b50919050565b60008190508160005260206000209050919050565b60006020601f8301049050919050565b600082821b905092915050565b600060088302620004f07fffffffffffffffffffffffffffffffffffffffffffffffffffffffffffffffff82620004b1565b620004fc8683620004b1565b95508019841693508086168417925050509392505050565b6000819050919050565b6000819050919050565b600062000549620005436200053d8462000514565b6200051e565b62000514565b9050919050565b6000819050919050565b620005658362000528565b6200057d620005748262000550565b848454620004be565b825550505050565b600090565b6200059462000585565b620005a18184846200055a565b505050565b5b81811015620005c957620005bd6000826200058a565b600181019050620005a7565b5050565b601f8211156200061857620005e2816200048c565b620005ed84620004a1565b81016020851015620005fd578190505b620006156200060c85620004a1565b830182620005a6565b50505b505050565b600082821c905092915050565b60006200063d600019846008026200061d565b1980831691505092915050565b60006200065883836200062a565b9150826002028217905092915050565b6200067382620003ee565b67ffffffffffffffff8111156200068f576200068e620003f9565b5b6200069b825462000457565b620006a8828285620005cd565b600060209050601f831160018114620006e05760008415620006cb578287015190505b620006d785826200064a565b86555062000747565b601f198416620006f0866200048c565b60005b828110156200071a57848901518255600182019150602085019450602081019050620006f3565b868310156200073a578489015162000736601f8916826200062a565b8355505b6001600288020188555050505b505050505050565b7f4e487b7100000000000000000000000000000000000000000000000000000000600052601160045260246000fd5b60008160011c9050919050565b6000808291508390505b6001851115620007dd57808604811115620007b557620007b46200074f565b5b6001851615620007c55780820291505b8081029050620007d5856200077e565b945062000795565b94509492505050565b600082620007f85760019050620008cb565b81620008085760009050620008cb565b81600181146200082157600281146200082c5762000862565b6001915050620008cb565b60ff8411156200084157620008406200074f565b5b8360020a9150848211156200085b576200085a6200074f565b5b50620008cb565b5060208310610133831016604e8410600b84101617156200089c5782820a9050838111156200089657620008956200074f565b5b620008cb565b620008ab84848460016200078b565b92509050818404811115620008c557620008c46200074f565b5b81810290505b9392505050565b600060ff82169050919050565b6000620008ec8262000514565b9150620008f983620008d2565b9250620009287fffffffffffffffffffffffffffffffffffffffffffffffffffffffffffffffff8484620007e6565b905092915050565b60006200093d8262000514565b91506200094a8362000514565b92508282026200095a8162000514565b915082820484148315176200097457620009736200074f565b5b5092915050565b600082825260208201905092915050565b7f45524332303a206d696e7420746f20746865207a65726f206164647265737300600082015250565b6000620009c4601f836200097b565b9150620009d1826200098c565b602082019050919050565b60006020820190508181036000830152620009f781620009b5565b9050919050565b600062000a0b8262000514565b915062000a188362000514565b925082820190508082111562000a335762000a326200074f565b5b92915050565b62000a448162000514565b82525050565b600060208201905062000a61600083018462000a39565b92915050565b613b628062000a776000396000f3fe6080604052600436106101f25760003560e01c80637ba54f1f1161010d578063bf805449116100a0578063dd62ed3e1161006f578063dd62ed3e14610749578063e0c6c19d14610786578063e269712f146107af578063eec00746146107d8578063ffab4bd914610801576101f9565b8063bf805449146106a1578063d11aca62146106ca578063d2b0d116146106e1578063d46980161461071e576101f9565b8063a457c2d7116100dc578063a457c2d7146105d3578063a9059cbb14610610578063b4a99a4e1461064d578063bb85c6d114610678576101f9565b80637ba54f1f14610517578063859214bd14610540578063940670451461056b57806395d89b41146105a8576101f9565b806339509351116101855780635e1bef32116101545780635e1bef32146104315780636f49712b1461047257806370a08231146104af57806375f0a874146104ec576101f9565b806339509351146103755780633aeac4e1146103b257806344df8e70146103db5780634cf088d914610406576101f9565b806323b872dd116101c157806323b872dd146102b95780632af4c31e146102f65780632d3e474a1461031f578063313ce5671461034a576101f9565b806306fdde03146101fb578063095ea7b31461022657806318160ddd146102635780631a6865021461028e576101f9565b366101f957005b005b34801561020757600080fd5b5061021061082a565b60405161021d9190612a9d565b60405180910390f35b34801561023257600080fd5b5061024d60048036038101906102489190612b58565b6108bc565b60405161025a9190612bb3565b60405180910390f35b34801561026f57600080fd5b506102786108df565b6040516102859190612bdd565b60405180910390f35b34801561029a57600080fd5b506102a36108e9565b6040516102b09190612bdd565b60405180910390f35b3480156102c557600080fd5b506102e060048036038101906102db9190612bf8565b6108ef565b6040516102ed9190612bb3565b60405180910390f35b34801561030257600080fd5b5061031d60048036038101906103189190612c4b565b610a4b565b005b34801561032b57600080fd5b50610334610b8e565b6040516103419190612bdd565b60405180910390f35b34801561035657600080fd5b5061035f610b94565b60405161036c9190612c94565b60405180910390f35b34801561038157600080fd5b5061039c60048036038101906103979190612b58565b610b9d565b6040516103a99190612bb3565b60405180910390f35b3480156103be57600080fd5b506103d960048036038101906103d49190612caf565b610bd4565b005b3480156103e757600080fd5b506103f0610e19565b6040516103fd9190612bdd565b60405180910390f35b34801561041257600080fd5b5061041b610e1f565b6040516104289190612bb3565b60405180910390f35b34801561043d57600080fd5b5061045860048036038101906104539190612cef565b610e32565b604051610469959493929190612d2b565b60405180910390f35b34801561047e57600080fd5b5061049960048036038101906104949190612c4b565b610e88565b6040516104a69190612bb3565b60405180910390f35b3480156104bb57600080fd5b506104d660048036038101906104d19190612c4b565b610ea8565b6040516104e39190612bdd565b60405180910390f35b3480156104f857600080fd5b50610501610ef0565b60405161050e9190612d9f565b60405180910390f35b34801561052357600080fd5b5061053e60048036038101906105399190612c4b565b610f16565b005b34801561054c57600080fd5b50610555611059565b6040516105629190612e78565b60405180910390f35b34801561057757600080fd5b50610592600480360381019061058d9190612cef565b611162565b60405161059f9190612e9a565b60405180910390f35b3480156105b457600080fd5b506105bd6111a1565b6040516105ca9190612a9d565b60405180910390f35b3480156105df57600080fd5b506105fa60048036038101906105f59190612b58565b611233565b6040516106079190612bb3565b60405180910390f35b34801561061c57600080fd5b5061063760048036038101906106329190612b58565b6112aa565b6040516106449190612bb3565b60405180910390f35b34801561065957600080fd5b506106626113fa565b60405161066f9190612e9a565b60405180910390f35b34801561068457600080fd5b5061069f600480360381019061069a9190612c4b565b611420565b005b3480156106ad57600080fd5b506106c860048036038101906106c39190612cef565b611563565b005b3480156106d657600080fd5b506106df611641565b005b3480156106ed57600080fd5b5061070860048036038101906107039190612eb5565b6116ee565b6040516107159190612bdd565b60405180910390f35b34801561072a57600080fd5b50610733611711565b6040516107409190612d9f565b60405180910390f35b34801561075557600080fd5b50610770600480360381019061076b9190612caf565b611737565b60405161077d9190612bdd565b60405180910390f35b34801561079257600080fd5b506107ad60048036038101906107a89190612cef565b6117be565b005b3480156107bb57600080fd5b506107d660048036038101906107d19190612cef565b611ae5565b005b3480156107e457600080fd5b506107ff60048036038101906107fa9190612cef565b611bc3565b005b34801561080d57600080fd5b5061082860048036038101906108239190612eb5565b611ca1565b005b60606003805461083990612f24565b80601f016020809104026020016040519081016040528092919081815260200182805461086590612f24565b80156108b25780601f10610887576101008083540402835291602001916108b2565b820191906000526020600020905b81548152906001019060200180831161089557829003601f168201915b5050505050905090565b6000806108c76120e0565b90506108d48185856120e8565b600191505092915050565b6000600254905090565b600c5481565b60008073ffffffffffffffffffffffffffffffffffffffff168373ffffffffffffffffffffffffffffffffffffffff160361095f576040517f08c379a000000000000000000000000000000000000000000000000000000000815260040161095690612fa1565b60405180910390fd5b60006109696120e0565b90506109768582856122b1565b600061098484600a5461233d565b9050600061099485600b5461233d565b905060006109a486600c5461233d565b905060008183856109b59190612ff0565b6109bf9190612ff0565b876109ca9190613024565b90506109d68985612360565b610a0389600560009054906101000a900473ffffffffffffffffffffffffffffffffffffffff168561252d565b610a3089600660009054906101000a900473ffffffffffffffffffffffffffffffffffffffff168461252d565b610a3b89898361252d565b6001955050505050509392505050565b600760009054906101000a900473ffffffffffffffffffffffffffffffffffffffff1673ffffffffffffffffffffffffffffffffffffffff163373ffffffffffffffffffffffffffffffffffffffff1614610adb576040517f08c379a0000000000000000000000000000000000000000000000000000000008152600401610ad2906130a4565b60405180910390fd5b600073ffffffffffffffffffffffffffffffffffffffff168173ffffffffffffffffffffffffffffffffffffffff1603610b4a576040517f08c379a0000000000000000000000000000000000000000000000000000000008152600401610b4190613110565b60405180910390fd5b80600760006101000a81548173ffffffffffffffffffffffffffffffffffffffff021916908373ffffffffffffffffffffffffffffffffffffffff16021790555050565b600b5481565b60006012905090565b600080610ba86120e0565b9050610bc9818585610bba8589611737565b610bc49190612ff0565b6120e8565b600191505092915050565b600760009054906101000a900473ffffffffffffffffffffffffffffffffffffffff1673ffffffffffffffffffffffffffffffffffffffff163373ffffffffffffffffffffffffffffffffffffffff1614610c64576040517f08c379a0000000000000000000000000000000000000000000000000000000008152600401610c5b906130a4565b60405180910390fd5b60008273ffffffffffffffffffffffffffffffffffffffff166370a08231306040518263ffffffff1660e01b8152600401610c9f9190612e9a565b602060405180830381865afa158015610cbc573d6000803e3d6000fd5b505050506040513d601f19601f82011682018060405250810190610ce09190613145565b1115610de3578173ffffffffffffffffffffffffffffffffffffffff1663a9059cbb828473ffffffffffffffffffffffffffffffffffffffff166370a08231306040518263ffffffff1660e01b8152600401610d3c9190612e9a565b602060405180830381865afa158015610d59573d6000803e3d6000fd5b505050506040513d601f19601f82011682018060405250810190610d7d9190613145565b6040518363ffffffff1660e01b8152600401610d9a929190613172565b6020604051808303816000875af1158015610db9573d6000803e3d6000fd5b505050506040513d601f19601f82011682018060405250810190610ddd91906131c7565b50610e15565b6040517fa6baffc900000000000000000000000000000000000000000000000000000000815260040160405180910390fd5b5050565b600a5481565b600e60009054906101000a900460ff1681565b600f6020528060005260406000206000915090508060000154908060010154908060020154908060030160009054906101000a900473ffffffffffffffffffffffffffffffffffffffff16908060040154905085565b60106020528060005260406000206000915054906101000a900460ff1681565b60008060008373ffffffffffffffffffffffffffffffffffffffff1673ffffffffffffffffffffffffffffffffffffffff168152602001908152602001600020549050919050565b600560009054906101000a900473ffffffffffffffffffffffffffffffffffffffff1681565b600760009054906101000a900473ffffffffffffffffffffffffffffffffffffffff1673ffffffffffffffffffffffffffffffffffffffff163373ffffffffffffffffffffffffffffffffffffffff1614610fa6576040517f08c379a0000000000000000000000000000000000000000000000000000000008152600401610f9d906130a4565b60405180910390fd5b600073ffffffffffffffffffffffffffffffffffffffff168173ffffffffffffffffffffffffffffffffffffffff1603611015576040517f08c379a000000000000000000000000000000000000000000000000000000000815260040161100c90613110565b60405180910390fd5b80600660006101000a81548173ffffffffffffffffffffffffffffffffffffffff021916908373ffffffffffffffffffffffffffffffffffffffff16021790555050565b6060600060098054905067ffffffffffffffff81111561107c5761107b6131f4565b5b6040519080825280602002602001820160405280156110aa5781602001602082028036833780820191505090505b50905060005b60098054905081101561115a57600981815481106110d1576110d0613223565b5b9060005260206000200160009054906101000a900473ffffffffffffffffffffffffffffffffffffffff1682828151811061110f5761110e613223565b5b602002602001019073ffffffffffffffffffffffffffffffffffffffff16908173ffffffffffffffffffffffffffffffffffffffff16815250508061115390613252565b90506110b0565b508091505090565b6009818154811061117257600080fd5b906000526020600020016000915054906101000a900473ffffffffffffffffffffffffffffffffffffffff1681565b6060600480546111b090612f24565b80601f01602080910402602001604051908101604052809291908181526020018280546111dc90612f24565b80156112295780601f106111fe57610100808354040283529160200191611229565b820191906000526020600020905b81548152906001019060200180831161120c57829003601f168201915b5050505050905090565b60008061123e6120e0565b9050600061124c8286611737565b905083811015611291576040517f08c379a00000000000000000000000000000000000000000000000000000000081526004016112889061330c565b60405180910390fd5b61129e82868684036120e8565b60019250505092915050565b60008073ffffffffffffffffffffffffffffffffffffffff168373ffffffffffffffffffffffffffffffffffffffff160361131a576040517f08c379a000000000000000000000000000000000000000000000000000000000815260040161131190612fa1565b60405180910390fd5b600061132883600a5461233d565b9050600061133884600b5461233d565b9050600061134885600c5461233d565b905060008183856113599190612ff0565b6113639190612ff0565b8661136e9190613024565b9050600061137a6120e0565b905061138781898461252d565b6113918186612360565b6113be81600560009054906101000a900473ffffffffffffffffffffffffffffffffffffffff168661252d565b6113eb81600660009054906101000a900473ffffffffffffffffffffffffffffffffffffffff168561252d565b60019550505050505092915050565b600760009054906101000a900473ffffffffffffffffffffffffffffffffffffffff1681565b600760009054906101000a900473ffffffffffffffffffffffffffffffffffffffff1673ffffffffffffffffffffffffffffffffffffffff163373ffffffffffffffffffffffffffffffffffffffff16146114b0576040517f08c379a00000000000000000000000000000000000000000000000000000000081526004016114a7906130a4565b60405180910390fd5b600073ffffffffffffffffffffffffffffffffffffffff168173ffffffffffffffffffffffffffffffffffffffff160361151f576040517f08c379a000000000000000000000000000000000000000000000000000000000815260040161151690613110565b60405180910390fd5b80600560006101000a81548173ffffffffffffffffffffffffffffffffffffffff021916908373ffffffffffffffffffffffffffffffffffffffff16021790555050565b600760009054906101000a900473ffffffffffffffffffffffffffffffffffffffff1673ffffffffffffffffffffffffffffffffffffffff163373ffffffffffffffffffffffffffffffffffffffff16146115f3576040517f08c379a00000000000000000000000000000000000000000000000000000000081526004016115ea906130a4565b60405180910390fd5b6127108110611637576040517f08c379a000000000000000000000000000000000000000000000000000000000815260040161162e90613378565b60405180910390fd5b80600c8190555050565b600760009054906101000a900473ffffffffffffffffffffffffffffffffffffffff1673ffffffffffffffffffffffffffffffffffffffff163373ffffffffffffffffffffffffffffffffffffffff16146116d1576040517f08c379a00000000000000000000000000000000000000000000000000000000081526004016116c8906130a4565b60405180910390fd5b6001600e60006101000a81548160ff021916908315150217905550565b600061271082846116ff9190613398565b6117099190613409565b905092915050565b600660009054906101000a900473ffffffffffffffffffffffffffffffffffffffff1681565b6000600160008473ffffffffffffffffffffffffffffffffffffffff1673ffffffffffffffffffffffffffffffffffffffff16815260200190815260200160002060008373ffffffffffffffffffffffffffffffffffffffff1673ffffffffffffffffffffffffffffffffffffffff16815260200190815260200160002054905092915050565b6000600f60008381526020019081526020016000206040518060a00160405290816000820154815260200160018201548152602001600282015481526020016003820160009054906101000a900473ffffffffffffffffffffffffffffffffffffffff1673ffffffffffffffffffffffffffffffffffffffff1673ffffffffffffffffffffffffffffffffffffffff1681526020016004820154815250509050806060015173ffffffffffffffffffffffffffffffffffffffff163373ffffffffffffffffffffffffffffffffffffffff16146118d0576040517f08c379a00000000000000000000000000000000000000000000000000000000081526004016118c7906134ac565b60405180910390fd5b806040015142101561190e576040517f3a89574900000000000000000000000000000000000000000000000000000000815260040160405180910390fd5b6201518081602001516119219190612ff0565b4211611962576040517f08c379a000000000000000000000000000000000000000000000000000000000815260040161195990613518565b60405180910390fd5b6000816020015182604001516119789190613024565b9050600061016d611991846000015185608001516116ee565b61199b9190613409565b9050600062015180836119ae9190613409565b9050600081836119be9190613398565b905060008186600001516119d29190612ff0565b9050600860009054906101000a900473ffffffffffffffffffffffffffffffffffffffff1673ffffffffffffffffffffffffffffffffffffffff1663a9059cbb33836040518363ffffffff1660e01b8152600401611a31929190613172565b6020604051808303816000875af1158015611a50573d6000803e3d6000fd5b505050506040513d601f19601f82011682018060405250810190611a7491906131c7565b50600f6000600d548152602001908152602001600020600080820160009055600182016000905560028201600090556003820160006101000a81549073ffffffffffffffffffffffffffffffffffffffff021916905560048201600090555050611adc6127a3565b50505050505050565b600760009054906101000a900473ffffffffffffffffffffffffffffffffffffffff1673ffffffffffffffffffffffffffffffffffffffff163373ffffffffffffffffffffffffffffffffffffffff1614611b75576040517f08c379a0000000000000000000000000000000000000000000000000000000008152600401611b6c906130a4565b60405180910390fd5b6127108110611bb9576040517f08c379a0000000000000000000000000000000000000000000000000000000008152600401611bb090613378565b60405180910390fd5b80600a8190555050565b600760009054906101000a900473ffffffffffffffffffffffffffffffffffffffff1673ffffffffffffffffffffffffffffffffffffffff163373ffffffffffffffffffffffffffffffffffffffff1614611c53576040517f08c379a0000000000000000000000000000000000000000000000000000000008152600401611c4a906130a4565b60405180910390fd5b6127108110611c97576040517f08c379a0000000000000000000000000000000000000000000000000000000008152600401611c8e90613378565b60405180910390fd5b80600b8190555050565b600e60009054906101000a900460ff16611cf0576040517f08c379a0000000000000000000000000000000000000000000000000000000008152600401611ce7906135aa565b60405180910390fd5b81600860009054906101000a900473ffffffffffffffffffffffffffffffffffffffff1673ffffffffffffffffffffffffffffffffffffffff166370a08231336040518263ffffffff1660e01b8152600401611d4c9190612e9a565b602060405180830381865afa158015611d69573d6000803e3d6000fd5b505050506040513d601f19601f82011682018060405250810190611d8d9190613145565b1015611dc5576040517fa6baffc900000000000000000000000000000000000000000000000000000000815260040160405180910390fd5b600f811480611dd45750602d81145b80611ddf5750605f81145b611e1e576040517f08c379a0000000000000000000000000000000000000000000000000000000008152600401611e159061363c565b60405180910390fd5b600860009054906101000a900473ffffffffffffffffffffffffffffffffffffffff1673ffffffffffffffffffffffffffffffffffffffff166323b872dd3330856040518463ffffffff1660e01b8152600401611e7d9392919061365c565b6020604051808303816000875af1158015611e9c573d6000803e3d6000fd5b505050506040513d601f19601f82011682018060405250810190611ec091906131c7565b5060006201518082611ed29190613398565b42611edd9190612ff0565b90506000611eef600980549050612958565b9050600d6000815480929190611f0490613252565b91905055506040518060a001604052808581526020014281526020018381526020013373ffffffffffffffffffffffffffffffffffffffff16815260200182815250600f6000600d54815260200190815260200160002060008201518160000155602082015181600101556040820151816002015560608201518160030160006101000a81548173ffffffffffffffffffffffffffffffffffffffff021916908373ffffffffffffffffffffffffffffffffffffffff16021790555060808201518160040155905050601060003373ffffffffffffffffffffffffffffffffffffffff1673ffffffffffffffffffffffffffffffffffffffff16815260200190815260200160002060009054906101000a900460ff16612082576009339080600181540180825580915050600190039060005260206000200160009091909190916101000a81548173ffffffffffffffffffffffffffffffffffffffff021916908373ffffffffffffffffffffffffffffffffffffffff1602179055505b6001601060003373ffffffffffffffffffffffffffffffffffffffff1673ffffffffffffffffffffffffffffffffffffffff16815260200190815260200160002060006101000a81548160ff02191690831515021790555050505050565b600033905090565b600073ffffffffffffffffffffffffffffffffffffffff168373ffffffffffffffffffffffffffffffffffffffff1603612157576040517f08c379a000000000000000000000000000000000000000000000000000000000815260040161214e90613705565b60405180910390fd5b600073ffffffffffffffffffffffffffffffffffffffff168273ffffffffffffffffffffffffffffffffffffffff16036121c6576040517f08c379a00000000000000000000000000000000000000000000000000000000081526004016121bd90613797565b60405180910390fd5b80600160008573ffffffffffffffffffffffffffffffffffffffff1673ffffffffffffffffffffffffffffffffffffffff16815260200190815260200160002060008473ffffffffffffffffffffffffffffffffffffffff1673ffffffffffffffffffffffffffffffffffffffff168152602001908152602001600020819055508173ffffffffffffffffffffffffffffffffffffffff168373ffffffffffffffffffffffffffffffffffffffff167f8c5be1e5ebec7d5bd14f71427d1e84f3dd0314c0f7b2291e5b200ac8c7c3b925836040516122a49190612bdd565b60405180910390a3505050565b60006122bd8484611737565b90507fffffffffffffffffffffffffffffffffffffffffffffffffffffffffffffffff81146123375781811015612329576040517f08c379a000000000000000000000000000000000000000000000000000000000815260040161232090613803565b60405180910390fd5b61233684848484036120e8565b5b50505050565b6000816127108461234e9190613409565b6123589190613398565b905092915050565b600073ffffffffffffffffffffffffffffffffffffffff168273ffffffffffffffffffffffffffffffffffffffff16036123cf576040517f08c379a00000000000000000000000000000000000000000000000000000000081526004016123c690613895565b60405180910390fd5b6123db82600083612a03565b60008060008473ffffffffffffffffffffffffffffffffffffffff1673ffffffffffffffffffffffffffffffffffffffff16815260200190815260200160002054905081811015612461576040517f08c379a000000000000000000000000000000000000000000000000000000000815260040161245890613927565b60405180910390fd5b8181036000808573ffffffffffffffffffffffffffffffffffffffff1673ffffffffffffffffffffffffffffffffffffffff1681526020019081526020016000208190555081600260008282540392505081905550600073ffffffffffffffffffffffffffffffffffffffff168373ffffffffffffffffffffffffffffffffffffffff167fddf252ad1be2c89b69c2b068fc378daa952ba7f163c4a11628f55a4df523b3ef846040516125149190612bdd565b60405180910390a361252883600084612a08565b505050565b600073ffffffffffffffffffffffffffffffffffffffff168373ffffffffffffffffffffffffffffffffffffffff160361259c576040517f08c379a0000000000000000000000000000000000000000000000000000000008152600401612593906139b9565b60405180910390fd5b600073ffffffffffffffffffffffffffffffffffffffff168273ffffffffffffffffffffffffffffffffffffffff160361260b576040517f08c379a000000000000000000000000000000000000000000000000000000000815260040161260290613a4b565b60405180910390fd5b612616838383612a03565b60008060008573ffffffffffffffffffffffffffffffffffffffff1673ffffffffffffffffffffffffffffffffffffffff1681526020019081526020016000205490508181101561269c576040517f08c379a000000000000000000000000000000000000000000000000000000000815260040161269390613add565b60405180910390fd5b8181036000808673ffffffffffffffffffffffffffffffffffffffff1673ffffffffffffffffffffffffffffffffffffffff16815260200190815260200160002081905550816000808573ffffffffffffffffffffffffffffffffffffffff1673ffffffffffffffffffffffffffffffffffffffff168152602001908152602001600020600082825401925050819055508273ffffffffffffffffffffffffffffffffffffffff168473ffffffffffffffffffffffffffffffffffffffff167fddf252ad1be2c89b69c2b068fc378daa952ba7f163c4a11628f55a4df523b3ef8460405161278a9190612bdd565b60405180910390a361279d848484612a08565b50505050565b60005b60098054905081101561290e57600981815481106127c7576127c6613223565b5b9060005260206000200160009054906101000a900473ffffffffffffffffffffffffffffffffffffffff1673ffffffffffffffffffffffffffffffffffffffff163373ffffffffffffffffffffffffffffffffffffffff16036128fd5760008190505b600160098054905061283c9190613024565b8110156128fb5760096001826128529190612ff0565b8154811061286357612862613223565b5b9060005260206000200160009054906101000a900473ffffffffffffffffffffffffffffffffffffffff16600982815481106128a2576128a1613223565b5b9060005260206000200160006101000a81548173ffffffffffffffffffffffffffffffffffffffff021916908373ffffffffffffffffffffffffffffffffffffffff160217905550806128f490613252565b905061282a565b505b8061290790613252565b90506127a6565b50600980548061292157612920613afd565b5b6001900381819060005260206000200160006101000a81549073ffffffffffffffffffffffffffffffffffffffff02191690559055565b6000606482101561296d5761032090506129fe565b60c88210156129805761031690506129fe565b61012c8210156129945761030c90506129fe565b6101908210156129a85761030290506129fe565b6101f48210156129bc576102f890506129fe565b6102588210156129d0576102ee90506129fe565b6102bc8210156129e4576102e490506129fe565b6103208210156129f8576102da90506129fe565b6102d090505b919050565b505050565b505050565b600081519050919050565b600082825260208201905092915050565b60005b83811015612a47578082015181840152602081019050612a2c565b60008484015250505050565b6000601f19601f8301169050919050565b6000612a6f82612a0d565b612a798185612a18565b9350612a89818560208601612a29565b612a9281612a53565b840191505092915050565b60006020820190508181036000830152612ab78184612a64565b905092915050565b600080fd5b600073ffffffffffffffffffffffffffffffffffffffff82169050919050565b6000612aef82612ac4565b9050919050565b612aff81612ae4565b8114612b0a57600080fd5b50565b600081359050612b1c81612af6565b92915050565b6000819050919050565b612b3581612b22565b8114612b4057600080fd5b50565b600081359050612b5281612b2c565b92915050565b60008060408385031215612b6f57612b6e612abf565b5b6000612b7d85828601612b0d565b9250506020612b8e85828601612b43565b9150509250929050565b60008115159050919050565b612bad81612b98565b82525050565b6000602082019050612bc86000830184612ba4565b92915050565b612bd781612b22565b82525050565b6000602082019050612bf26000830184612bce565b92915050565b600080600060608486031215612c1157612c10612abf565b5b6000612c1f86828701612b0d565b9350506020612c3086828701612b0d565b9250506040612c4186828701612b43565b9150509250925092565b600060208284031215612c6157612c60612abf565b5b6000612c6f84828501612b0d565b91505092915050565b600060ff82169050919050565b612c8e81612c78565b82525050565b6000602082019050612ca96000830184612c85565b92915050565b60008060408385031215612cc657612cc5612abf565b5b6000612cd485828601612b0d565b9250506020612ce585828601612b0d565b9150509250929050565b600060208284031215612d0557612d04612abf565b5b6000612d1384828501612b43565b91505092915050565b612d2581612ae4565b82525050565b600060a082019050612d406000830188612bce565b612d4d6020830187612bce565b612d5a6040830186612bce565b612d676060830185612d1c565b612d746080830184612bce565b9695505050505050565b6000612d8982612ac4565b9050919050565b612d9981612d7e565b82525050565b6000602082019050612db46000830184612d90565b92915050565b600081519050919050565b600082825260208201905092915050565b6000819050602082019050919050565b612def81612ae4565b82525050565b6000612e018383612de6565b60208301905092915050565b6000602082019050919050565b6000612e2582612dba565b612e2f8185612dc5565b9350612e3a83612dd6565b8060005b83811015612e6b578151612e528882612df5565b9750612e5d83612e0d565b925050600181019050612e3e565b5085935050505092915050565b60006020820190508181036000830152612e928184612e1a565b905092915050565b6000602082019050612eaf6000830184612d1c565b92915050565b60008060408385031215612ecc57612ecb612abf565b5b6000612eda85828601612b43565b9250506020612eeb85828601612b43565b9150509250929050565b7f4e487b7100000000000000000000000000000000000000000000000000000000600052602260045260246000fd5b60006002820490506001821680612f3c57607f821691505b602082108103612f4f57612f4e612ef5565b5b50919050565b7f43616e6e6f74207472616e7366657220746f207a65726f206164647265737300600082015250565b6000612f8b601f83612a18565b9150612f9682612f55565b602082019050919050565b60006020820190508181036000830152612fba81612f7e565b9050919050565b7f4e487b7100000000000000000000000000000000000000000000000000000000600052601160045260246000fd5b6000612ffb82612b22565b915061300683612b22565b925082820190508082111561301e5761301d612fc1565b5b92915050565b600061302f82612b22565b915061303a83612b22565b925082820390508181111561305257613051612fc1565b5b92915050565b7f596f7520617265206e6f74204f776e6572000000000000000000000000000000600082015250565b600061308e601183612a18565b915061309982613058565b602082019050919050565b600060208201905081810360008301526130bd81613081565b9050919050565b7f706c656173652061646420616464726573730000000000000000000000000000600082015250565b60006130fa601283612a18565b9150613105826130c4565b602082019050919050565b60006020820190508181036000830152613129816130ed565b9050919050565b60008151905061313f81612b2c565b92915050565b60006020828403121561315b5761315a612abf565b5b600061316984828501613130565b91505092915050565b60006040820190506131876000830185612d1c565b6131946020830184612bce565b9392505050565b6131a481612b98565b81146131af57600080fd5b50565b6000815190506131c18161319b565b92915050565b6000602082840312156131dd576131dc612abf565b5b60006131eb848285016131b2565b91505092915050565b7f4e487b7100000000000000000000000000000000000000000000000000000000600052604160045260246000fd5b7f4e487b7100000000000000000000000000000000000000000000000000000000600052603260045260246000fd5b600061325d82612b22565b91507fffffffffffffffffffffffffffffffffffffffffffffffffffffffffffffffff820361328f5761328e612fc1565b5b600182019050919050565b7f45524332303a2064656372656173656420616c6c6f77616e63652062656c6f7760008201527f207a65726f000000000000000000000000000000000000000000000000000000602082015250565b60006132f6602583612a18565b91506133018261329a565b604082019050919050565b60006020820190508181036000830152613325816132e9565b9050919050565b7f706c6561736520707574206c657373207468616e203130303030000000000000600082015250565b6000613362601a83612a18565b915061336d8261332c565b602082019050919050565b6000602082019050818103600083015261339181613355565b9050919050565b60006133a382612b22565b91506133ae83612b22565b92508282026133bc81612b22565b915082820484148315176133d3576133d2612fc1565b5b5092915050565b7f4e487b7100000000000000000000000000000000000000000000000000000000600052601260045260246000fd5b600061341482612b22565b915061341f83612b22565b92508261342f5761342e6133da565b5b828204905092915050565b7f4f6e6c7920746865207374616b65722063616e20756e7374616b65207468652060008201527f7265776172640000000000000000000000000000000000000000000000000000602082015250565b6000613496602683612a18565b91506134a18261343a565b604082019050919050565b600060208201905081810360008301526134c581613489565b9050919050565b7f43616e277420756e7374616b65206265666f7265204f6e652064617900000000600082015250565b6000613502601c83612a18565b915061350d826134cc565b602082019050919050565b60006020820190508181036000830152613531816134f5565b9050919050565b7f5374616b696e67206973206e6f7420616c6c6f776564207965742e20506c656160008201527f7365205761697421000000000000000000000000000000000000000000000000602082015250565b6000613594602883612a18565b915061359f82613538565b604082019050919050565b600060208201905081810360008301526135c381613587565b9050919050565b7f506c6561736520656e746572203135206f72203435206f72203935204461797360008201527f2021000000000000000000000000000000000000000000000000000000000000602082015250565b6000613626602283612a18565b9150613631826135ca565b604082019050919050565b6000602082019050818103600083015261365581613619565b9050919050565b60006060820190506136716000830186612d1c565b61367e6020830185612d1c565b61368b6040830184612bce565b949350505050565b7f45524332303a20617070726f76652066726f6d20746865207a65726f2061646460008201527f7265737300000000000000000000000000000000000000000000000000000000602082015250565b60006136ef602483612a18565b91506136fa82613693565b604082019050919050565b6000602082019050818103600083015261371e816136e2565b9050919050565b7f45524332303a20617070726f766520746f20746865207a65726f20616464726560008201527f7373000000000000000000000000000000000000000000000000000000000000602082015250565b6000613781602283612a18565b915061378c82613725565b604082019050919050565b600060208201905081810360008301526137b081613774565b9050919050565b7f45524332303a20696e73756666696369656e7420616c6c6f77616e6365000000600082015250565b60006137ed601d83612a18565b91506137f8826137b7565b602082019050919050565b6000602082019050818103600083015261381c816137e0565b9050919050565b7f45524332303a206275726e2066726f6d20746865207a65726f2061646472657360008201527f7300000000000000000000000000000000000000000000000000000000000000602082015250565b600061387f602183612a18565b915061388a82613823565b604082019050919050565b600060208201905081810360008301526138ae81613872565b9050919050565b7f45524332303a206275726e20616d6f756e7420657863656564732062616c616e60008201527f6365000000000000000000000000000000000000000000000000000000000000602082015250565b6000613911602283612a18565b915061391c826138b5565b604082019050919050565b6000602082019050818103600083015261394081613904565b9050919050565b7f45524332303a207472616e736665722066726f6d20746865207a65726f20616460008201527f6472657373000000000000000000000000000000000000000000000000000000602082015250565b60006139a3602583612a18565b91506139ae82613947565b604082019050919050565b600060208201905081810360008301526139d281613996565b9050919050565b7f45524332303a207472616e7366657220746f20746865207a65726f206164647260008201527f6573730000000000000000000000000000000000000000000000000000000000602082015250565b6000613a35602383612a18565b9150613a40826139d9565b604082019050919050565b60006020820190508181036000830152613a6481613a28565b9050919050565b7f45524332303a207472616e7366657220616d6f756e742065786365656473206260008201527f616c616e63650000000000000000000000000000000000000000000000000000602082015250565b6000613ac7602683612a18565b9150613ad282613a6b565b604082019050919050565b60006020820190508181036000830152613af681613aba565b9050919050565b7f4e487b7100000000000000000000000000000000000000000000000000000000600052603160045260246000fdfea26469706673582212200a4138b710e4e264d3a094ceffcfa5e14796c45aba6866dec572068946b36adf64736f6c63430008120033",
  "linkReferences": {},
  "deployedLinkReferences": {}
}